{
  "_format": "hh-sol-artifact-1",
  "contractName": "CourseCertificate",
  "sourceName": "contracts/CourseCertificate.sol",
  "abi": [
    {
      "inputs": [],
      "stateMutability": "nonpayable",
      "type": "constructor"
    },
    {
      "anonymous": false,
      "inputs": [
        {
          "indexed": true,
          "internalType": "address",
          "name": "owner",
          "type": "address"
        },
        {
          "indexed": true,
          "internalType": "address",
          "name": "approved",
          "type": "address"
        },
        {
          "indexed": true,
          "internalType": "uint256",
          "name": "tokenId",
          "type": "uint256"
        }
      ],
      "name": "Approval",
      "type": "event"
    },
    {
      "anonymous": false,
      "inputs": [
        {
          "indexed": true,
          "internalType": "address",
          "name": "owner",
          "type": "address"
        },
        {
          "indexed": true,
          "internalType": "address",
          "name": "operator",
          "type": "address"
        },
        {
          "indexed": false,
          "internalType": "bool",
          "name": "approved",
          "type": "bool"
        }
      ],
      "name": "ApprovalForAll",
      "type": "event"
    },
    {
      "anonymous": false,
      "inputs": [
        {
          "indexed": true,
          "internalType": "address",
          "name": "previousOwner",
          "type": "address"
        },
        {
          "indexed": true,
          "internalType": "address",
          "name": "newOwner",
          "type": "address"
        }
      ],
      "name": "OwnershipTransferred",
      "type": "event"
    },
    {
      "anonymous": false,
      "inputs": [
        {
          "indexed": true,
          "internalType": "address",
          "name": "from",
          "type": "address"
        },
        {
          "indexed": true,
          "internalType": "address",
          "name": "to",
          "type": "address"
        },
        {
          "indexed": true,
          "internalType": "uint256",
          "name": "tokenId",
          "type": "uint256"
        }
      ],
      "name": "Transfer",
      "type": "event"
    },
    {
      "inputs": [
        {
          "internalType": "address",
          "name": "to",
          "type": "address"
        },
        {
          "internalType": "uint256",
          "name": "tokenId",
          "type": "uint256"
        }
      ],
      "name": "approve",
      "outputs": [],
      "stateMutability": "nonpayable",
      "type": "function"
    },
    {
      "inputs": [
        {
          "internalType": "address",
          "name": "player",
          "type": "address"
        },
        {
          "internalType": "string",
          "name": "tokenURI",
          "type": "string"
        }
      ],
      "name": "awardJavascriptCertificate",
      "outputs": [
        {
          "internalType": "uint256",
          "name": "",
          "type": "uint256"
        }
      ],
      "stateMutability": "nonpayable",
      "type": "function"
    },
    {
      "inputs": [
        {
          "internalType": "address",
          "name": "player",
          "type": "address"
        },
        {
          "internalType": "string",
          "name": "tokenURI",
          "type": "string"
        }
      ],
      "name": "awardPythonCertificate",
      "outputs": [
        {
          "internalType": "uint256",
          "name": "",
          "type": "uint256"
        }
      ],
      "stateMutability": "nonpayable",
      "type": "function"
    },
    {
      "inputs": [
        {
          "internalType": "address",
          "name": "player",
          "type": "address"
        },
        {
          "internalType": "string",
          "name": "tokenURI",
          "type": "string"
        }
      ],
      "name": "awardSolidityCertificate",
      "outputs": [
        {
          "internalType": "uint256",
          "name": "",
          "type": "uint256"
        }
      ],
      "stateMutability": "nonpayable",
      "type": "function"
    },
    {
      "inputs": [
        {
          "internalType": "address",
          "name": "owner",
          "type": "address"
        }
      ],
      "name": "balanceOf",
      "outputs": [
        {
          "internalType": "uint256",
          "name": "",
          "type": "uint256"
        }
      ],
      "stateMutability": "view",
      "type": "function"
    },
    {
      "inputs": [
        {
          "internalType": "uint256",
          "name": "tokenId",
          "type": "uint256"
        }
      ],
      "name": "getApproved",
      "outputs": [
        {
          "internalType": "address",
          "name": "",
          "type": "address"
        }
      ],
      "stateMutability": "view",
      "type": "function"
    },
    {
      "inputs": [
        {
          "internalType": "address",
          "name": "owner",
          "type": "address"
        },
        {
          "internalType": "address",
          "name": "operator",
          "type": "address"
        }
      ],
      "name": "isApprovedForAll",
      "outputs": [
        {
          "internalType": "bool",
          "name": "",
          "type": "bool"
        }
      ],
      "stateMutability": "view",
      "type": "function"
    },
    {
      "inputs": [],
      "name": "name",
      "outputs": [
        {
          "internalType": "string",
          "name": "",
          "type": "string"
        }
      ],
      "stateMutability": "view",
      "type": "function"
    },
    {
      "inputs": [],
      "name": "owner",
      "outputs": [
        {
          "internalType": "address",
          "name": "",
          "type": "address"
        }
      ],
      "stateMutability": "view",
      "type": "function"
    },
    {
      "inputs": [
        {
          "internalType": "uint256",
          "name": "tokenId",
          "type": "uint256"
        }
      ],
      "name": "ownerOf",
      "outputs": [
        {
          "internalType": "address",
          "name": "",
          "type": "address"
        }
      ],
      "stateMutability": "view",
      "type": "function"
    },
    {
      "inputs": [],
      "name": "renounceOwnership",
      "outputs": [],
      "stateMutability": "nonpayable",
      "type": "function"
    },
    {
      "inputs": [
        {
          "internalType": "address",
          "name": "from",
          "type": "address"
        },
        {
          "internalType": "address",
          "name": "to",
          "type": "address"
        },
        {
          "internalType": "uint256",
          "name": "tokenId",
          "type": "uint256"
        }
      ],
      "name": "safeTransferFrom",
      "outputs": [],
      "stateMutability": "nonpayable",
      "type": "function"
    },
    {
      "inputs": [
        {
          "internalType": "address",
          "name": "from",
          "type": "address"
        },
        {
          "internalType": "address",
          "name": "to",
          "type": "address"
        },
        {
          "internalType": "uint256",
          "name": "tokenId",
          "type": "uint256"
        },
        {
          "internalType": "bytes",
          "name": "_data",
          "type": "bytes"
        }
      ],
      "name": "safeTransferFrom",
      "outputs": [],
      "stateMutability": "nonpayable",
      "type": "function"
    },
    {
      "inputs": [
        {
          "internalType": "address",
          "name": "operator",
          "type": "address"
        },
        {
          "internalType": "bool",
          "name": "approved",
          "type": "bool"
        }
      ],
      "name": "setApprovalForAll",
      "outputs": [],
      "stateMutability": "nonpayable",
      "type": "function"
    },
    {
      "inputs": [
        {
          "internalType": "bytes4",
          "name": "interfaceId",
          "type": "bytes4"
        }
      ],
      "name": "supportsInterface",
      "outputs": [
        {
          "internalType": "bool",
          "name": "",
          "type": "bool"
        }
      ],
      "stateMutability": "view",
      "type": "function"
    },
    {
      "inputs": [],
      "name": "symbol",
      "outputs": [
        {
          "internalType": "string",
          "name": "",
          "type": "string"
        }
      ],
      "stateMutability": "view",
      "type": "function"
    },
    {
      "inputs": [
        {
          "internalType": "uint256",
          "name": "tokenId",
          "type": "uint256"
        }
      ],
      "name": "tokenURI",
      "outputs": [
        {
          "internalType": "string",
          "name": "",
          "type": "string"
        }
      ],
      "stateMutability": "view",
      "type": "function"
    },
    {
      "inputs": [
        {
          "internalType": "address",
          "name": "from",
          "type": "address"
        },
        {
          "internalType": "address",
          "name": "to",
          "type": "address"
        },
        {
          "internalType": "uint256",
          "name": "tokenId",
          "type": "uint256"
        }
      ],
      "name": "transferFrom",
      "outputs": [],
      "stateMutability": "nonpayable",
      "type": "function"
    },
    {
      "inputs": [
        {
          "internalType": "address",
          "name": "newOwner",
          "type": "address"
        }
      ],
      "name": "transferOwnership",
      "outputs": [],
      "stateMutability": "nonpayable",
      "type": "function"
    }
  ],
  "bytecode": "0x60806040523480156200001157600080fd5b506040518060400160405280601181526020017f436f7572736543657274696669636174650000000000000000000000000000008152506040518060400160405280600381526020017f424c430000000000000000000000000000000000000000000000000000000000815250816000908051906020019062000096929190620001a6565b508060019080519060200190620000af929190620001a6565b505050620000d2620000c6620000d860201b60201c565b620000e060201b60201c565b620002bb565b600033905090565b6000600760009054906101000a900473ffffffffffffffffffffffffffffffffffffffff16905081600760006101000a81548173ffffffffffffffffffffffffffffffffffffffff021916908373ffffffffffffffffffffffffffffffffffffffff1602179055508173ffffffffffffffffffffffffffffffffffffffff168173ffffffffffffffffffffffffffffffffffffffff167f8be0079c531659141344cd1fd0a4f28419497f9722a3daafe3b4186f6b6457e060405160405180910390a35050565b828054620001b49062000256565b90600052602060002090601f016020900481019282620001d8576000855562000224565b82601f10620001f357805160ff191683800117855562000224565b8280016001018555821562000224579182015b828111156200022357825182559160200191906001019062000206565b5b50905062000233919062000237565b5090565b5b808211156200025257600081600090555060010162000238565b5090565b600060028204905060018216806200026f57607f821691505b602082108114156200028657620002856200028c565b5b50919050565b7f4e487b7100000000000000000000000000000000000000000000000000000000600052602260045260246000fd5b6131fe80620002cb6000396000f3fe608060405234801561001057600080fd5b50600436106101215760003560e01c8063715018a6116100ad578063a22cb46511610071578063a22cb4651461032e578063b88d4fde1461034a578063c87b56dd14610366578063e985e9c514610396578063f2fde38b146103c657610121565b8063715018a6146102885780638da4be4a146102925780638da5cb5b146102c257806395d89b41146102e05780639cc1ee3c146102fe57610121565b806323b872dd116100f457806323b872dd146101c057806342842e0e146101dc5780635ff2c8e8146101f85780636352211e1461022857806370a082311461025857610121565b806301ffc9a71461012657806306fdde0314610156578063081812fc14610174578063095ea7b3146101a4575b600080fd5b610140600480360381019061013b919061215e565b6103e2565b60405161014d91906125b6565b60405180910390f35b61015e6104c4565b60405161016b91906125d1565b60405180910390f35b61018e600480360381019061018991906121b8565b610556565b60405161019b919061254f565b60405180910390f35b6101be60048036038101906101b9919061211e565b6105db565b005b6101da60048036038101906101d59190611fac565b6106f3565b005b6101f660048036038101906101f19190611fac565b610753565b005b610212600480360381019061020d91906120c2565b610773565b60405161021f9190612833565b60405180910390f35b610242600480360381019061023d91906121b8565b610827565b60405161024f919061254f565b60405180910390f35b610272600480360381019061026d9190611f3f565b6108d9565b60405161027f9190612833565b60405180910390f35b610290610991565b005b6102ac60048036038101906102a791906120c2565b610a19565b6040516102b99190612833565b60405180910390f35b6102ca610acd565b6040516102d7919061254f565b60405180910390f35b6102e8610af7565b6040516102f591906125d1565b60405180910390f35b610318600480360381019061031391906120c2565b610b89565b6040516103259190612833565b60405180910390f35b61034860048036038101906103439190612082565b610c3d565b005b610364600480360381019061035f9190611fff565b610c53565b005b610380600480360381019061037b91906121b8565b610cb5565b60405161038d91906125d1565b60405180910390f35b6103b060048036038101906103ab9190611f6c565b610e07565b6040516103bd91906125b6565b60405180910390f35b6103e060048036038101906103db9190611f3f565b610e9b565b005b60007f80ac58cd000000000000000000000000000000000000000000000000000000007bffffffffffffffffffffffffffffffffffffffffffffffffffffffff1916827bffffffffffffffffffffffffffffffffffffffffffffffffffffffff191614806104ad57507f5b5e139f000000000000000000000000000000000000000000000000000000007bffffffffffffffffffffffffffffffffffffffffffffffffffffffff1916827bffffffffffffffffffffffffffffffffffffffffffffffffffffffff1916145b806104bd57506104bc82610f93565b5b9050919050565b6060600080546104d390612a89565b80601f01602080910402602001604051908101604052809291908181526020018280546104ff90612a89565b801561054c5780601f106105215761010080835404028352916020019161054c565b820191906000526020600020905b81548152906001019060200180831161052f57829003601f168201915b5050505050905090565b600061056182610ffd565b6105a0576040517f08c379a000000000000000000000000000000000000000000000000000000000815260040161059790612793565b60405180910390fd5b6004600083815260200190815260200160002060009054906101000a900473ffffffffffffffffffffffffffffffffffffffff169050919050565b60006105e682610827565b90508073ffffffffffffffffffffffffffffffffffffffff168373ffffffffffffffffffffffffffffffffffffffff161415610657576040517f08c379a000000000000000000000000000000000000000000000000000000000815260040161064e906127f3565b60405180910390fd5b8073ffffffffffffffffffffffffffffffffffffffff16610676611069565b73ffffffffffffffffffffffffffffffffffffffff1614806106a557506106a48161069f611069565b610e07565b5b6106e4576040517f08c379a00000000000000000000000000000000000000000000000000000000081526004016106db906126d3565b60405180910390fd5b6106ee8383611071565b505050565b6107046106fe611069565b8261112a565b610743576040517f08c379a000000000000000000000000000000000000000000000000000000000815260040161073a90612813565b60405180910390fd5b61074e838383611208565b505050565b61076e83838360405180602001604052806000815250610c53565b505050565b600061077d611069565b73ffffffffffffffffffffffffffffffffffffffff1661079b610acd565b73ffffffffffffffffffffffffffffffffffffffff16146107f1576040517f08c379a00000000000000000000000000000000000000000000000000000000081526004016107e8906127b3565b60405180910390fd5b6107fb600861146f565b60006108076008611485565b90506108138482611493565b61081d818461166d565b8091505092915050565b6000806002600084815260200190815260200160002060009054906101000a900473ffffffffffffffffffffffffffffffffffffffff169050600073ffffffffffffffffffffffffffffffffffffffff168173ffffffffffffffffffffffffffffffffffffffff1614156108d0576040517f08c379a00000000000000000000000000000000000000000000000000000000081526004016108c790612713565b60405180910390fd5b80915050919050565b60008073ffffffffffffffffffffffffffffffffffffffff168273ffffffffffffffffffffffffffffffffffffffff16141561094a576040517f08c379a0000000000000000000000000000000000000000000000000000000008152600401610941906126f3565b60405180910390fd5b600360008373ffffffffffffffffffffffffffffffffffffffff1673ffffffffffffffffffffffffffffffffffffffff168152602001908152602001600020549050919050565b610999611069565b73ffffffffffffffffffffffffffffffffffffffff166109b7610acd565b73ffffffffffffffffffffffffffffffffffffffff1614610a0d576040517f08c379a0000000000000000000000000000000000000000000000000000000008152600401610a04906127b3565b60405180910390fd5b610a1760006116e1565b565b6000610a23611069565b73ffffffffffffffffffffffffffffffffffffffff16610a41610acd565b73ffffffffffffffffffffffffffffffffffffffff1614610a97576040517f08c379a0000000000000000000000000000000000000000000000000000000008152600401610a8e906127b3565b60405180910390fd5b610aa1600861146f565b6000610aad6008611485565b9050610ab98482611493565b610ac3818461166d565b8091505092915050565b6000600760009054906101000a900473ffffffffffffffffffffffffffffffffffffffff16905090565b606060018054610b0690612a89565b80601f0160208091040260200160405190810160405280929190818152602001828054610b3290612a89565b8015610b7f5780601f10610b5457610100808354040283529160200191610b7f565b820191906000526020600020905b815481529060010190602001808311610b6257829003601f168201915b5050505050905090565b6000610b93611069565b73ffffffffffffffffffffffffffffffffffffffff16610bb1610acd565b73ffffffffffffffffffffffffffffffffffffffff1614610c07576040517f08c379a0000000000000000000000000000000000000000000000000000000008152600401610bfe906127b3565b60405180910390fd5b610c11600861146f565b6000610c1d6008611485565b9050610c298482611493565b610c33818461166d565b8091505092915050565b610c4f610c48611069565b83836117a7565b5050565b610c64610c5e611069565b8361112a565b610ca3576040517f08c379a0000000000000000000000000000000000000000000000000000000008152600401610c9a90612813565b60405180910390fd5b610caf84848484611914565b50505050565b6060610cc082610ffd565b610cff576040517f08c379a0000000000000000000000000000000000000000000000000000000008152600401610cf690612773565b60405180910390fd5b6000600660008481526020019081526020016000208054610d1f90612a89565b80601f0160208091040260200160405190810160405280929190818152602001828054610d4b90612a89565b8015610d985780601f10610d6d57610100808354040283529160200191610d98565b820191906000526020600020905b815481529060010190602001808311610d7b57829003601f168201915b505050505090506000610da9611970565b9050600081511415610dbf578192505050610e02565b600082511115610df4578082604051602001610ddc92919061252b565b60405160208183030381529060405292505050610e02565b610dfd84611987565b925050505b919050565b6000600560008473ffffffffffffffffffffffffffffffffffffffff1673ffffffffffffffffffffffffffffffffffffffff16815260200190815260200160002060008373ffffffffffffffffffffffffffffffffffffffff1673ffffffffffffffffffffffffffffffffffffffff16815260200190815260200160002060009054906101000a900460ff16905092915050565b610ea3611069565b73ffffffffffffffffffffffffffffffffffffffff16610ec1610acd565b73ffffffffffffffffffffffffffffffffffffffff1614610f17576040517f08c379a0000000000000000000000000000000000000000000000000000000008152600401610f0e906127b3565b60405180910390fd5b600073ffffffffffffffffffffffffffffffffffffffff168173ffffffffffffffffffffffffffffffffffffffff161415610f87576040517f08c379a0000000000000000000000000000000000000000000000000000000008152600401610f7e90612613565b60405180910390fd5b610f90816116e1565b50565b60007f01ffc9a7000000000000000000000000000000000000000000000000000000007bffffffffffffffffffffffffffffffffffffffffffffffffffffffff1916827bffffffffffffffffffffffffffffffffffffffffffffffffffffffff1916149050919050565b60008073ffffffffffffffffffffffffffffffffffffffff166002600084815260200190815260200160002060009054906101000a900473ffffffffffffffffffffffffffffffffffffffff1673ffffffffffffffffffffffffffffffffffffffff1614159050919050565b600033905090565b816004600083815260200190815260200160002060006101000a81548173ffffffffffffffffffffffffffffffffffffffff021916908373ffffffffffffffffffffffffffffffffffffffff160217905550808273ffffffffffffffffffffffffffffffffffffffff166110e483610827565b73ffffffffffffffffffffffffffffffffffffffff167f8c5be1e5ebec7d5bd14f71427d1e84f3dd0314c0f7b2291e5b200ac8c7c3b92560405160405180910390a45050565b600061113582610ffd565b611174576040517f08c379a000000000000000000000000000000000000000000000000000000000815260040161116b906126b3565b60405180910390fd5b600061117f83610827565b90508073ffffffffffffffffffffffffffffffffffffffff168473ffffffffffffffffffffffffffffffffffffffff1614806111c157506111c08185610e07565b5b806111ff57508373ffffffffffffffffffffffffffffffffffffffff166111e784610556565b73ffffffffffffffffffffffffffffffffffffffff16145b91505092915050565b8273ffffffffffffffffffffffffffffffffffffffff1661122882610827565b73ffffffffffffffffffffffffffffffffffffffff161461127e576040517f08c379a000000000000000000000000000000000000000000000000000000000815260040161127590612633565b60405180910390fd5b600073ffffffffffffffffffffffffffffffffffffffff168273ffffffffffffffffffffffffffffffffffffffff1614156112ee576040517f08c379a00000000000000000000000000000000000000000000000000000000081526004016112e590612673565b60405180910390fd5b6112f9838383611a2e565b611304600082611071565b6001600360008573ffffffffffffffffffffffffffffffffffffffff1673ffffffffffffffffffffffffffffffffffffffff1681526020019081526020016000206000828254611354919061299f565b925050819055506001600360008473ffffffffffffffffffffffffffffffffffffffff1673ffffffffffffffffffffffffffffffffffffffff16815260200190815260200160002060008282546113ab9190612918565b92505081905550816002600083815260200190815260200160002060006101000a81548173ffffffffffffffffffffffffffffffffffffffff021916908373ffffffffffffffffffffffffffffffffffffffff160217905550808273ffffffffffffffffffffffffffffffffffffffff168473ffffffffffffffffffffffffffffffffffffffff167fddf252ad1be2c89b69c2b068fc378daa952ba7f163c4a11628f55a4df523b3ef60405160405180910390a461146a838383611a33565b505050565b6001816000016000828254019250508190555050565b600081600001549050919050565b600073ffffffffffffffffffffffffffffffffffffffff168273ffffffffffffffffffffffffffffffffffffffff161415611503576040517f08c379a00000000000000000000000000000000000000000000000000000000081526004016114fa90612753565b60405180910390fd5b61150c81610ffd565b1561154c576040517f08c379a000000000000000000000000000000000000000000000000000000000815260040161154390612653565b60405180910390fd5b61155860008383611a2e565b6001600360008473ffffffffffffffffffffffffffffffffffffffff1673ffffffffffffffffffffffffffffffffffffffff16815260200190815260200160002060008282546115a89190612918565b92505081905550816002600083815260200190815260200160002060006101000a81548173ffffffffffffffffffffffffffffffffffffffff021916908373ffffffffffffffffffffffffffffffffffffffff160217905550808273ffffffffffffffffffffffffffffffffffffffff16600073ffffffffffffffffffffffffffffffffffffffff167fddf252ad1be2c89b69c2b068fc378daa952ba7f163c4a11628f55a4df523b3ef60405160405180910390a461166960008383611a33565b5050565b61167682610ffd565b6116b5576040517f08c379a00000000000000000000000000000000000000000000000000000000081526004016116ac90612733565b60405180910390fd5b806006600084815260200190815260200160002090805190602001906116dc929190611d53565b505050565b6000600760009054906101000a900473ffffffffffffffffffffffffffffffffffffffff16905081600760006101000a81548173ffffffffffffffffffffffffffffffffffffffff021916908373ffffffffffffffffffffffffffffffffffffffff1602179055508173ffffffffffffffffffffffffffffffffffffffff168173ffffffffffffffffffffffffffffffffffffffff167f8be0079c531659141344cd1fd0a4f28419497f9722a3daafe3b4186f6b6457e060405160405180910390a35050565b8173ffffffffffffffffffffffffffffffffffffffff168373ffffffffffffffffffffffffffffffffffffffff161415611816576040517f08c379a000000000000000000000000000000000000000000000000000000000815260040161180d90612693565b60405180910390fd5b80600560008573ffffffffffffffffffffffffffffffffffffffff1673ffffffffffffffffffffffffffffffffffffffff16815260200190815260200160002060008473ffffffffffffffffffffffffffffffffffffffff1673ffffffffffffffffffffffffffffffffffffffff16815260200190815260200160002060006101000a81548160ff0219169083151502179055508173ffffffffffffffffffffffffffffffffffffffff168373ffffffffffffffffffffffffffffffffffffffff167f17307eab39ab6107e8899845ad3d59bd9653f200f220920489ca2b5937696c318360405161190791906125b6565b60405180910390a3505050565b61191f848484611208565b61192b84848484611a38565b61196a576040517f08c379a0000000000000000000000000000000000000000000000000000000008152600401611961906125f3565b60405180910390fd5b50505050565b606060405180602001604052806000815250905090565b606061199282610ffd565b6119d1576040517f08c379a00000000000000000000000000000000000000000000000000000000081526004016119c8906127d3565b60405180910390fd5b60006119db611970565b905060008151116119fb5760405180602001604052806000815250611a26565b80611a0584611bcf565b604051602001611a1692919061252b565b6040516020818303038152906040525b915050919050565b505050565b505050565b6000611a598473ffffffffffffffffffffffffffffffffffffffff16611d30565b15611bc2578373ffffffffffffffffffffffffffffffffffffffff1663150b7a02611a82611069565b8786866040518563ffffffff1660e01b8152600401611aa4949392919061256a565b602060405180830381600087803b158015611abe57600080fd5b505af1925050508015611aef57506040513d601f19601f82011682018060405250810190611aec919061218b565b60015b611b72573d8060008114611b1f576040519150601f19603f3d011682016040523d82523d6000602084013e611b24565b606091505b50600081511415611b6a576040517f08c379a0000000000000000000000000000000000000000000000000000000008152600401611b61906125f3565b60405180910390fd5b805181602001fd5b63150b7a0260e01b7bffffffffffffffffffffffffffffffffffffffffffffffffffffffff1916817bffffffffffffffffffffffffffffffffffffffffffffffffffffffff191614915050611bc7565b600190505b949350505050565b60606000821415611c17576040518060400160405280600181526020017f30000000000000000000000000000000000000000000000000000000000000008152509050611d2b565b600082905060005b60008214611c49578080611c3290612aec565b915050600a82611c42919061296e565b9150611c1f565b60008167ffffffffffffffff811115611c6557611c64612c22565b5b6040519080825280601f01601f191660200182016040528015611c975781602001600182028036833780820191505090505b5090505b60008514611d2457600182611cb0919061299f565b9150600a85611cbf9190612b35565b6030611ccb9190612918565b60f81b818381518110611ce157611ce0612bf3565b5b60200101907effffffffffffffffffffffffffffffffffffffffffffffffffffffffffffff1916908160001a905350600a85611d1d919061296e565b9450611c9b565b8093505050505b919050565b6000808273ffffffffffffffffffffffffffffffffffffffff163b119050919050565b828054611d5f90612a89565b90600052602060002090601f016020900481019282611d815760008555611dc8565b82601f10611d9a57805160ff1916838001178555611dc8565b82800160010185558215611dc8579182015b82811115611dc7578251825591602001919060010190611dac565b5b509050611dd59190611dd9565b5090565b5b80821115611df2576000816000905550600101611dda565b5090565b6000611e09611e0484612873565b61284e565b905082815260208101848484011115611e2557611e24612c56565b5b611e30848285612a47565b509392505050565b6000611e4b611e46846128a4565b61284e565b905082815260208101848484011115611e6757611e66612c56565b5b611e72848285612a47565b509392505050565b600081359050611e898161316c565b92915050565b600081359050611e9e81613183565b92915050565b600081359050611eb38161319a565b92915050565b600081519050611ec88161319a565b92915050565b600082601f830112611ee357611ee2612c51565b5b8135611ef3848260208601611df6565b91505092915050565b600082601f830112611f1157611f10612c51565b5b8135611f21848260208601611e38565b91505092915050565b600081359050611f39816131b1565b92915050565b600060208284031215611f5557611f54612c60565b5b6000611f6384828501611e7a565b91505092915050565b60008060408385031215611f8357611f82612c60565b5b6000611f9185828601611e7a565b9250506020611fa285828601611e7a565b9150509250929050565b600080600060608486031215611fc557611fc4612c60565b5b6000611fd386828701611e7a565b9350506020611fe486828701611e7a565b9250506040611ff586828701611f2a565b9150509250925092565b6000806000806080858703121561201957612018612c60565b5b600061202787828801611e7a565b945050602061203887828801611e7a565b935050604061204987828801611f2a565b925050606085013567ffffffffffffffff81111561206a57612069612c5b565b5b61207687828801611ece565b91505092959194509250565b6000806040838503121561209957612098612c60565b5b60006120a785828601611e7a565b92505060206120b885828601611e8f565b9150509250929050565b600080604083850312156120d9576120d8612c60565b5b60006120e785828601611e7a565b925050602083013567ffffffffffffffff81111561210857612107612c5b565b5b61211485828601611efc565b9150509250929050565b6000806040838503121561213557612134612c60565b5b600061214385828601611e7a565b925050602061215485828601611f2a565b9150509250929050565b60006020828403121561217457612173612c60565b5b600061218284828501611ea4565b91505092915050565b6000602082840312156121a1576121a0612c60565b5b60006121af84828501611eb9565b91505092915050565b6000602082840312156121ce576121cd612c60565b5b60006121dc84828501611f2a565b91505092915050565b6121ee816129d3565b82525050565b6121fd816129e5565b82525050565b600061220e826128d5565b61221881856128eb565b9350612228818560208601612a56565b61223181612c65565b840191505092915050565b6000612247826128e0565b61225181856128fc565b9350612261818560208601612a56565b61226a81612c65565b840191505092915050565b6000612280826128e0565b61228a818561290d565b935061229a818560208601612a56565b80840191505092915050565b60006122b36032836128fc565b91506122be82612c76565b604082019050919050565b60006122d66026836128fc565b91506122e182612cc5565b604082019050919050565b60006122f96025836128fc565b915061230482612d14565b604082019050919050565b600061231c601c836128fc565b915061232782612d63565b602082019050919050565b600061233f6024836128fc565b915061234a82612d8c565b604082019050919050565b60006123626019836128fc565b915061236d82612ddb565b602082019050919050565b6000612385602c836128fc565b915061239082612e04565b604082019050919050565b60006123a86038836128fc565b91506123b382612e53565b604082019050919050565b60006123cb602a836128fc565b91506123d682612ea2565b604082019050919050565b60006123ee6029836128fc565b91506123f982612ef1565b604082019050919050565b6000612411602e836128fc565b915061241c82612f40565b604082019050919050565b60006124346020836128fc565b915061243f82612f8f565b602082019050919050565b60006124576031836128fc565b915061246282612fb8565b604082019050919050565b600061247a602c836128fc565b915061248582613007565b604082019050919050565b600061249d6020836128fc565b91506124a882613056565b602082019050919050565b60006124c0602f836128fc565b91506124cb8261307f565b604082019050919050565b60006124e36021836128fc565b91506124ee826130ce565b604082019050919050565b60006125066031836128fc565b91506125118261311d565b604082019050919050565b61252581612a3d565b82525050565b60006125378285612275565b91506125438284612275565b91508190509392505050565b600060208201905061256460008301846121e5565b92915050565b600060808201905061257f60008301876121e5565b61258c60208301866121e5565b612599604083018561251c565b81810360608301526125ab8184612203565b905095945050505050565b60006020820190506125cb60008301846121f4565b92915050565b600060208201905081810360008301526125eb818461223c565b905092915050565b6000602082019050818103600083015261260c816122a6565b9050919050565b6000602082019050818103600083015261262c816122c9565b9050919050565b6000602082019050818103600083015261264c816122ec565b9050919050565b6000602082019050818103600083015261266c8161230f565b9050919050565b6000602082019050818103600083015261268c81612332565b9050919050565b600060208201905081810360008301526126ac81612355565b9050919050565b600060208201905081810360008301526126cc81612378565b9050919050565b600060208201905081810360008301526126ec8161239b565b9050919050565b6000602082019050818103600083015261270c816123be565b9050919050565b6000602082019050818103600083015261272c816123e1565b9050919050565b6000602082019050818103600083015261274c81612404565b9050919050565b6000602082019050818103600083015261276c81612427565b9050919050565b6000602082019050818103600083015261278c8161244a565b9050919050565b600060208201905081810360008301526127ac8161246d565b9050919050565b600060208201905081810360008301526127cc81612490565b9050919050565b600060208201905081810360008301526127ec816124b3565b9050919050565b6000602082019050818103600083015261280c816124d6565b9050919050565b6000602082019050818103600083015261282c816124f9565b9050919050565b6000602082019050612848600083018461251c565b92915050565b6000612858612869565b90506128648282612abb565b919050565b6000604051905090565b600067ffffffffffffffff82111561288e5761288d612c22565b5b61289782612c65565b9050602081019050919050565b600067ffffffffffffffff8211156128bf576128be612c22565b5b6128c882612c65565b9050602081019050919050565b600081519050919050565b600081519050919050565b600082825260208201905092915050565b600082825260208201905092915050565b600081905092915050565b600061292382612a3d565b915061292e83612a3d565b9250827fffffffffffffffffffffffffffffffffffffffffffffffffffffffffffffffff0382111561296357612962612b66565b5b828201905092915050565b600061297982612a3d565b915061298483612a3d565b92508261299457612993612b95565b5b828204905092915050565b60006129aa82612a3d565b91506129b583612a3d565b9250828210156129c8576129c7612b66565b5b828203905092915050565b60006129de82612a1d565b9050919050565b60008115159050919050565b60007fffffffff0000000000000000000000000000000000000000000000000000000082169050919050565b600073ffffffffffffffffffffffffffffffffffffffff82169050919050565b6000819050919050565b82818337600083830152505050565b60005b83811015612a74578082015181840152602081019050612a59565b83811115612a83576000848401525b50505050565b60006002820490506001821680612aa157607f821691505b60208210811415612ab557612ab4612bc4565b5b50919050565b612ac482612c65565b810181811067ffffffffffffffff82111715612ae357612ae2612c22565b5b80604052505050565b6000612af782612a3d565b91507fffffffffffffffffffffffffffffffffffffffffffffffffffffffffffffffff821415612b2a57612b29612b66565b5b600182019050919050565b6000612b4082612a3d565b9150612b4b83612a3d565b925082612b5b57612b5a612b95565b5b828206905092915050565b7f4e487b7100000000000000000000000000000000000000000000000000000000600052601160045260246000fd5b7f4e487b7100000000000000000000000000000000000000000000000000000000600052601260045260246000fd5b7f4e487b7100000000000000000000000000000000000000000000000000000000600052602260045260246000fd5b7f4e487b7100000000000000000000000000000000000000000000000000000000600052603260045260246000fd5b7f4e487b7100000000000000000000000000000000000000000000000000000000600052604160045260246000fd5b600080fd5b600080fd5b600080fd5b600080fd5b6000601f19601f8301169050919050565b7f4552433732313a207472616e7366657220746f206e6f6e20455243373231526560008201527f63656976657220696d706c656d656e7465720000000000000000000000000000602082015250565b7f4f776e61626c653a206e6577206f776e657220697320746865207a65726f206160008201527f6464726573730000000000000000000000000000000000000000000000000000602082015250565b7f4552433732313a207472616e736665722066726f6d20696e636f72726563742060008201527f6f776e6572000000000000000000000000000000000000000000000000000000602082015250565b7f4552433732313a20746f6b656e20616c7265616479206d696e74656400000000600082015250565b7f4552433732313a207472616e7366657220746f20746865207a65726f2061646460008201527f7265737300000000000000000000000000000000000000000000000000000000602082015250565b7f4552433732313a20617070726f766520746f2063616c6c657200000000000000600082015250565b7f4552433732313a206f70657261746f7220717565727920666f72206e6f6e657860008201527f697374656e7420746f6b656e0000000000000000000000000000000000000000602082015250565b7f4552433732313a20617070726f76652063616c6c6572206973206e6f74206f7760008201527f6e6572206e6f7220617070726f76656420666f7220616c6c0000000000000000602082015250565b7f4552433732313a2062616c616e636520717565727920666f7220746865207a6560008201527f726f206164647265737300000000000000000000000000000000000000000000602082015250565b7f4552433732313a206f776e657220717565727920666f72206e6f6e657869737460008201527f656e7420746f6b656e0000000000000000000000000000000000000000000000602082015250565b7f45524337323155524953746f726167653a2055524920736574206f66206e6f6e60008201527f6578697374656e7420746f6b656e000000000000000000000000000000000000602082015250565b7f4552433732313a206d696e7420746f20746865207a65726f2061646472657373600082015250565b7f45524337323155524953746f726167653a2055524920717565727920666f722060008201527f6e6f6e6578697374656e7420746f6b656e000000000000000000000000000000602082015250565b7f4552433732313a20617070726f76656420717565727920666f72206e6f6e657860008201527f697374656e7420746f6b656e0000000000000000000000000000000000000000602082015250565b7f4f776e61626c653a2063616c6c6572206973206e6f7420746865206f776e6572600082015250565b7f4552433732314d657461646174613a2055524920717565727920666f72206e6f60008201527f6e6578697374656e7420746f6b656e0000000000000000000000000000000000602082015250565b7f4552433732313a20617070726f76616c20746f2063757272656e74206f776e6560008201527f7200000000000000000000000000000000000000000000000000000000000000602082015250565b7f4552433732313a207472616e736665722063616c6c6572206973206e6f74206f60008201527f776e6572206e6f7220617070726f766564000000000000000000000000000000602082015250565b613175816129d3565b811461318057600080fd5b50565b61318c816129e5565b811461319757600080fd5b50565b6131a3816129f1565b81146131ae57600080fd5b50565b6131ba81612a3d565b81146131c557600080fd5b5056fea26469706673582212202fc580a31d66ddeb3ca0290d93955f5bf180cab9ca039bb736c593da7fdb16cd64736f6c63430008070033",
  "linkReferences": {},
  "deployedLinkReferences": {}
}