{
  "_format": "hh-sol-artifact-1",
  "contractName": "BCLState",
  "sourceName": "contracts/BCLState.sol",
  "abi": [
    {
      "anonymous": false,
      "inputs": [
        {
          "indexed": true,
          "internalType": "address",
          "name": "previousOwner",
          "type": "address"
        },
        {
          "indexed": true,
          "internalType": "address",
          "name": "newOwner",
          "type": "address"
        }
      ],
      "name": "OwnershipTransferred",
      "type": "event"
    },
    {
      "inputs": [
        {
          "internalType": "address",
          "name": "_address",
          "type": "address"
        },
        {
          "internalType": "uint8",
          "name": "_code",
          "type": "uint8"
        }
      ],
      "name": "checkCodeInAllowMint",
      "outputs": [
        {
          "internalType": "bool",
          "name": "",
          "type": "bool"
        }
      ],
      "stateMutability": "view",
      "type": "function"
    },
    {
      "inputs": [
        {
          "internalType": "address",
          "name": "_address",
          "type": "address"
        }
      ],
      "name": "getCodesAllowMint",
      "outputs": [
        {
          "internalType": "uint8[]",
          "name": "",
          "type": "uint8[]"
        }
      ],
      "stateMutability": "view",
      "type": "function"
    },
    {
      "inputs": [],
      "name": "owner",
      "outputs": [
        {
          "internalType": "address",
          "name": "",
          "type": "address"
        }
      ],
      "stateMutability": "view",
      "type": "function"
    },
    {
      "inputs": [
        {
          "internalType": "address",
          "name": "_address",
          "type": "address"
        },
        {
          "internalType": "uint8",
          "name": "_code",
          "type": "uint8"
        }
      ],
      "name": "removeCodeFromAllowMint",
      "outputs": [],
      "stateMutability": "nonpayable",
      "type": "function"
    },
    {
      "inputs": [],
      "name": "renounceOwnership",
      "outputs": [],
      "stateMutability": "nonpayable",
      "type": "function"
    },
    {
      "inputs": [
        {
          "internalType": "address",
          "name": "_address",
          "type": "address"
        },
        {
          "internalType": "uint8",
          "name": "_allowedToMint",
          "type": "uint8"
        }
      ],
      "name": "setAllowMint",
      "outputs": [],
      "stateMutability": "nonpayable",
      "type": "function"
    },
    {
      "inputs": [
        {
          "internalType": "address",
          "name": "newOwner",
          "type": "address"
        }
      ],
      "name": "transferOwnership",
      "outputs": [],
      "stateMutability": "nonpayable",
      "type": "function"
    }
  ],
  "bytecode": "0x608060405234801561001057600080fd5b5061002d61002261003260201b60201c565b61003a60201b60201c565b6100fe565b600033905090565b60008060009054906101000a900473ffffffffffffffffffffffffffffffffffffffff169050816000806101000a81548173ffffffffffffffffffffffffffffffffffffffff021916908373ffffffffffffffffffffffffffffffffffffffff1602179055508173ffffffffffffffffffffffffffffffffffffffff168173ffffffffffffffffffffffffffffffffffffffff167f8be0079c531659141344cd1fd0a4f28419497f9722a3daafe3b4186f6b6457e060405160405180910390a35050565b610d358061010d6000396000f3fe608060405234801561001057600080fd5b506004361061007d5760003560e01c8063954ceb901161005b578063954ceb90146100c6578063a4998e61146100f6578063f2fde38b14610126578063ffa3d2a3146101425761007d565b80633296185314610082578063715018a61461009e5780638da5cb5b146100a8575b600080fd5b61009c60048036038101906100979190610909565b61015e565b005b6100a6610401565b005b6100b0610489565b6040516100bd9190610a32565b60405180910390f35b6100e060048036038101906100db91906108dc565b6104b2565b6040516100ed9190610a4d565b60405180910390f35b610110600480360381019061010b9190610909565b61056f565b60405161011d9190610a6f565b60405180910390f35b610140600480360381019061013b91906108dc565b61066e565b005b61015c60048036038101906101579190610909565b610766565b005b60005b600160008473ffffffffffffffffffffffffffffffffffffffff1673ffffffffffffffffffffffffffffffffffffffff168152602001908152602001600020805490508160ff1610156103fc578160ff16600160008573ffffffffffffffffffffffffffffffffffffffff1673ffffffffffffffffffffffffffffffffffffffff1681526020019081526020016000208260ff168154811061020657610205610c25565b5b90600052602060002090602091828204019190069054906101000a900460ff1660ff1614156103e957600160008473ffffffffffffffffffffffffffffffffffffffff1673ffffffffffffffffffffffffffffffffffffffff16815260200190815260200160002060018060008673ffffffffffffffffffffffffffffffffffffffff1673ffffffffffffffffffffffffffffffffffffffff168152602001908152602001600020805490506102bc9190610b14565b815481106102cd576102cc610c25565b5b90600052602060002090602091828204019190069054906101000a900460ff16600160008573ffffffffffffffffffffffffffffffffffffffff1673ffffffffffffffffffffffffffffffffffffffff1681526020019081526020016000208260ff168154811061034157610340610c25565b5b90600052602060002090602091828204019190066101000a81548160ff021916908360ff160217905550600160008473ffffffffffffffffffffffffffffffffffffffff1673ffffffffffffffffffffffffffffffffffffffff1681526020019081526020016000208054806103ba576103b9610bf6565b5b60019003818190600052602060002090602091828204019190066101000a81549060ff021916905590556103fc565b80806103f490610b9d565b915050610161565b505050565b6104096107e6565b73ffffffffffffffffffffffffffffffffffffffff16610427610489565b73ffffffffffffffffffffffffffffffffffffffff161461047d576040517f08c379a000000000000000000000000000000000000000000000000000000000815260040161047490610aaa565b60405180910390fd5b61048760006107ee565b565b60008060009054906101000a900473ffffffffffffffffffffffffffffffffffffffff16905090565b6060600160008373ffffffffffffffffffffffffffffffffffffffff1673ffffffffffffffffffffffffffffffffffffffff16815260200190815260200160002080548060200260200160405190810160405280929190818152602001828054801561056357602002820191906000526020600020906000905b82829054906101000a900460ff1660ff168152602001906001019060208260000104928301926001038202915080841161052c5790505b50505050509050919050565b600080600090505b600160008573ffffffffffffffffffffffffffffffffffffffff1673ffffffffffffffffffffffffffffffffffffffff168152602001908152602001600020805490508160ff161015610662578260ff16600160008673ffffffffffffffffffffffffffffffffffffffff1673ffffffffffffffffffffffffffffffffffffffff1681526020019081526020016000208260ff168154811061061c5761061b610c25565b5b90600052602060002090602091828204019190069054906101000a900460ff1660ff16141561064f576001915050610668565b808061065a90610b9d565b915050610577565b50600090505b92915050565b6106766107e6565b73ffffffffffffffffffffffffffffffffffffffff16610694610489565b73ffffffffffffffffffffffffffffffffffffffff16146106ea576040517f08c379a00000000000000000000000000000000000000000000000000000000081526004016106e190610aaa565b60405180910390fd5b600073ffffffffffffffffffffffffffffffffffffffff168173ffffffffffffffffffffffffffffffffffffffff16141561075a576040517f08c379a000000000000000000000000000000000000000000000000000000000815260040161075190610a8a565b60405180910390fd5b610763816107ee565b50565b61076e6107e6565b73ffffffffffffffffffffffffffffffffffffffff1661078c610489565b73ffffffffffffffffffffffffffffffffffffffff16146107e2576040517f08c379a00000000000000000000000000000000000000000000000000000000081526004016107d990610aaa565b60405180910390fd5b5050565b600033905090565b60008060009054906101000a900473ffffffffffffffffffffffffffffffffffffffff169050816000806101000a81548173ffffffffffffffffffffffffffffffffffffffff021916908373ffffffffffffffffffffffffffffffffffffffff1602179055508173ffffffffffffffffffffffffffffffffffffffff168173ffffffffffffffffffffffffffffffffffffffff167f8be0079c531659141344cd1fd0a4f28419497f9722a3daafe3b4186f6b6457e060405160405180910390a35050565b6000813590506108c181610cd1565b92915050565b6000813590506108d681610ce8565b92915050565b6000602082840312156108f2576108f1610c54565b5b6000610900848285016108b2565b91505092915050565b600080604083850312156109205761091f610c54565b5b600061092e858286016108b2565b925050602061093f858286016108c7565b9150509250929050565b60006109558383610a23565b60208301905092915050565b61096a81610b48565b82525050565b600061097b82610ada565b6109858185610af2565b935061099083610aca565b8060005b838110156109c15781516109a88882610949565b97506109b383610ae5565b925050600181019050610994565b5085935050505092915050565b6109d781610b5a565b82525050565b60006109ea602683610b03565b91506109f582610c59565b604082019050919050565b6000610a0d602083610b03565b9150610a1882610ca8565b602082019050919050565b610a2c81610b90565b82525050565b6000602082019050610a476000830184610961565b92915050565b60006020820190508181036000830152610a678184610970565b905092915050565b6000602082019050610a8460008301846109ce565b92915050565b60006020820190508181036000830152610aa3816109dd565b9050919050565b60006020820190508181036000830152610ac381610a00565b9050919050565b6000819050602082019050919050565b600081519050919050565b6000602082019050919050565b600082825260208201905092915050565b600082825260208201905092915050565b6000610b1f82610b86565b9150610b2a83610b86565b925082821015610b3d57610b3c610bc7565b5b828203905092915050565b6000610b5382610b66565b9050919050565b60008115159050919050565b600073ffffffffffffffffffffffffffffffffffffffff82169050919050565b6000819050919050565b600060ff82169050919050565b6000610ba882610b90565b915060ff821415610bbc57610bbb610bc7565b5b600182019050919050565b7f4e487b7100000000000000000000000000000000000000000000000000000000600052601160045260246000fd5b7f4e487b7100000000000000000000000000000000000000000000000000000000600052603160045260246000fd5b7f4e487b7100000000000000000000000000000000000000000000000000000000600052603260045260246000fd5b600080fd5b7f4f776e61626c653a206e6577206f776e657220697320746865207a65726f206160008201527f6464726573730000000000000000000000000000000000000000000000000000602082015250565b7f4f776e61626c653a2063616c6c6572206973206e6f7420746865206f776e6572600082015250565b610cda81610b48565b8114610ce557600080fd5b50565b610cf181610b90565b8114610cfc57600080fd5b5056fea26469706673582212203a283ef6012dd02b832a4994068c24f062ae56c4a51f29f140dcdc4ae4ad8a3e64736f6c63430008070033",
  "linkReferences": {},
  "deployedLinkReferences": {}
}