{
  "_format": "hh-sol-artifact-1",
  "contractName": "TradingCardNFT",
  "sourceName": "contracts/Character.sol",
  "abi": [
    {
      "inputs": [
        {
          "internalType": "address",
          "name": "vrfCoordinatorV2",
          "type": "address"
        },
        {
          "internalType": "bytes32",
          "name": "gasLane",
          "type": "bytes32"
        },
        {
          "internalType": "uint64",
          "name": "subscriptionId",
          "type": "uint64"
        },
        {
          "internalType": "uint32",
          "name": "callBackGasLimit",
          "type": "uint32"
        },
        {
          "internalType": "string[4]",
          "name": "characterTokenUris",
          "type": "string[4]"
        }
      ],
      "stateMutability": "nonpayable",
      "type": "constructor"
    },
    {
      "inputs": [
        {
          "internalType": "address",
          "name": "have",
          "type": "address"
        },
        {
          "internalType": "address",
          "name": "want",
          "type": "address"
        }
      ],
      "name": "OnlyCoordinatorCanFulfill",
      "type": "error"
    },
    {
      "anonymous": false,
      "inputs": [
        {
          "indexed": true,
          "internalType": "address",
          "name": "owner",
          "type": "address"
        },
        {
          "indexed": true,
          "internalType": "address",
          "name": "approved",
          "type": "address"
        },
        {
          "indexed": true,
          "internalType": "uint256",
          "name": "tokenId",
          "type": "uint256"
        }
      ],
      "name": "Approval",
      "type": "event"
    },
    {
      "anonymous": false,
      "inputs": [
        {
          "indexed": true,
          "internalType": "address",
          "name": "owner",
          "type": "address"
        },
        {
          "indexed": true,
          "internalType": "address",
          "name": "operator",
          "type": "address"
        },
        {
          "indexed": false,
          "internalType": "bool",
          "name": "approved",
          "type": "bool"
        }
      ],
      "name": "ApprovalForAll",
      "type": "event"
    },
    {
      "anonymous": false,
      "inputs": [
        {
          "indexed": true,
          "internalType": "address",
          "name": "previousOwner",
          "type": "address"
        },
        {
          "indexed": true,
          "internalType": "address",
          "name": "newOwner",
          "type": "address"
        }
      ],
      "name": "OwnershipTransferred",
      "type": "event"
    },
    {
      "anonymous": false,
      "inputs": [
        {
          "indexed": true,
          "internalType": "address",
          "name": "from",
          "type": "address"
        },
        {
          "indexed": true,
          "internalType": "address",
          "name": "to",
          "type": "address"
        },
        {
          "indexed": true,
          "internalType": "uint256",
          "name": "tokenId",
          "type": "uint256"
        }
      ],
      "name": "Transfer",
      "type": "event"
    },
    {
      "inputs": [],
      "name": "MAX_CHANCE_VALUE",
      "outputs": [
        {
          "internalType": "uint256",
          "name": "",
          "type": "uint256"
        }
      ],
      "stateMutability": "view",
      "type": "function"
    },
    {
      "inputs": [],
      "name": "NUM_WORDS",
      "outputs": [
        {
          "internalType": "uint32",
          "name": "",
          "type": "uint32"
        }
      ],
      "stateMutability": "view",
      "type": "function"
    },
    {
      "inputs": [],
      "name": "REQUEST_CONFIRMATIONS",
      "outputs": [
        {
          "internalType": "uint16",
          "name": "",
          "type": "uint16"
        }
      ],
      "stateMutability": "view",
      "type": "function"
    },
    {
      "inputs": [
        {
          "internalType": "address",
          "name": "to",
          "type": "address"
        },
        {
          "internalType": "uint256",
          "name": "tokenId",
          "type": "uint256"
        }
      ],
      "name": "approve",
      "outputs": [],
      "stateMutability": "nonpayable",
      "type": "function"
    },
    {
      "inputs": [
        {
          "internalType": "address",
          "name": "owner",
          "type": "address"
        }
      ],
      "name": "balanceOf",
      "outputs": [
        {
          "internalType": "uint256",
          "name": "",
          "type": "uint256"
        }
      ],
      "stateMutability": "view",
      "type": "function"
    },
    {
      "inputs": [
        {
          "internalType": "uint256",
          "name": "tokenId",
          "type": "uint256"
        }
      ],
      "name": "getApproved",
      "outputs": [
        {
          "internalType": "address",
          "name": "",
          "type": "address"
        }
      ],
      "stateMutability": "view",
      "type": "function"
    },
    {
      "inputs": [],
      "name": "getChanceArray",
      "outputs": [
        {
          "internalType": "uint256[4]",
          "name": "",
          "type": "uint256[4]"
        }
      ],
      "stateMutability": "view",
      "type": "function"
    },
    {
      "inputs": [
        {
          "internalType": "uint256",
          "name": "moddedRng",
          "type": "uint256"
        }
      ],
      "name": "getCharacterFromModdedRng",
      "outputs": [
        {
          "internalType": "uint256",
          "name": "",
          "type": "uint256"
        }
      ],
      "stateMutability": "nonpayable",
      "type": "function"
    },
    {
      "inputs": [],
      "name": "i_callbackGasLimit",
      "outputs": [
        {
          "internalType": "uint32",
          "name": "",
          "type": "uint32"
        }
      ],
      "stateMutability": "view",
      "type": "function"
    },
    {
      "inputs": [],
      "name": "i_gasLane",
      "outputs": [
        {
          "internalType": "bytes32",
          "name": "",
          "type": "bytes32"
        }
      ],
      "stateMutability": "view",
      "type": "function"
    },
    {
      "inputs": [],
      "name": "i_subscriptionId",
      "outputs": [
        {
          "internalType": "uint64",
          "name": "",
          "type": "uint64"
        }
      ],
      "stateMutability": "view",
      "type": "function"
    },
    {
      "inputs": [],
      "name": "i_vrfCoordinator",
      "outputs": [
        {
          "internalType": "contract VRFCoordinatorV2Interface",
          "name": "",
          "type": "address"
        }
      ],
      "stateMutability": "view",
      "type": "function"
    },
    {
      "inputs": [
        {
          "internalType": "address",
          "name": "owner",
          "type": "address"
        },
        {
          "internalType": "address",
          "name": "operator",
          "type": "address"
        }
      ],
      "name": "isApprovedForAll",
      "outputs": [
        {
          "internalType": "bool",
          "name": "",
          "type": "bool"
        }
      ],
      "stateMutability": "view",
      "type": "function"
    },
    {
      "inputs": [],
      "name": "name",
      "outputs": [
        {
          "internalType": "string",
          "name": "",
          "type": "string"
        }
      ],
      "stateMutability": "view",
      "type": "function"
    },
    {
      "inputs": [],
      "name": "owner",
      "outputs": [
        {
          "internalType": "address",
          "name": "",
          "type": "address"
        }
      ],
      "stateMutability": "view",
      "type": "function"
    },
    {
      "inputs": [
        {
          "internalType": "uint256",
          "name": "tokenId",
          "type": "uint256"
        }
      ],
      "name": "ownerOf",
      "outputs": [
        {
          "internalType": "address",
          "name": "",
          "type": "address"
        }
      ],
      "stateMutability": "view",
      "type": "function"
    },
    {
      "inputs": [
        {
          "internalType": "uint256",
          "name": "requestId",
          "type": "uint256"
        },
        {
          "internalType": "uint256[]",
          "name": "randomWords",
          "type": "uint256[]"
        }
      ],
      "name": "rawFulfillRandomWords",
      "outputs": [],
      "stateMutability": "nonpayable",
      "type": "function"
    },
    {
      "inputs": [],
      "name": "renounceOwnership",
      "outputs": [],
      "stateMutability": "nonpayable",
      "type": "function"
    },
    {
      "inputs": [],
      "name": "requestTradingCard",
      "outputs": [
        {
          "internalType": "uint256",
          "name": "requestId",
          "type": "uint256"
        }
      ],
      "stateMutability": "nonpayable",
      "type": "function"
    },
    {
      "inputs": [
        {
          "internalType": "uint256",
          "name": "",
          "type": "uint256"
        }
      ],
      "name": "s_characterTokenUris",
      "outputs": [
        {
          "internalType": "string",
          "name": "",
          "type": "string"
        }
      ],
      "stateMutability": "view",
      "type": "function"
    },
    {
      "inputs": [
        {
          "internalType": "uint256",
          "name": "",
          "type": "uint256"
        }
      ],
      "name": "s_requestIdToSender",
      "outputs": [
        {
          "internalType": "address",
          "name": "",
          "type": "address"
        }
      ],
      "stateMutability": "view",
      "type": "function"
    },
    {
      "inputs": [],
      "name": "s_tokenCounter",
      "outputs": [
        {
          "internalType": "uint256",
          "name": "",
          "type": "uint256"
        }
      ],
      "stateMutability": "view",
      "type": "function"
    },
    {
      "inputs": [
        {
          "internalType": "address",
          "name": "from",
          "type": "address"
        },
        {
          "internalType": "address",
          "name": "to",
          "type": "address"
        },
        {
          "internalType": "uint256",
          "name": "tokenId",
          "type": "uint256"
        }
      ],
      "name": "safeTransferFrom",
      "outputs": [],
      "stateMutability": "nonpayable",
      "type": "function"
    },
    {
      "inputs": [
        {
          "internalType": "address",
          "name": "from",
          "type": "address"
        },
        {
          "internalType": "address",
          "name": "to",
          "type": "address"
        },
        {
          "internalType": "uint256",
          "name": "tokenId",
          "type": "uint256"
        },
        {
          "internalType": "bytes",
          "name": "_data",
          "type": "bytes"
        }
      ],
      "name": "safeTransferFrom",
      "outputs": [],
      "stateMutability": "nonpayable",
      "type": "function"
    },
    {
      "inputs": [
        {
          "internalType": "address",
          "name": "operator",
          "type": "address"
        },
        {
          "internalType": "bool",
          "name": "approved",
          "type": "bool"
        }
      ],
      "name": "setApprovalForAll",
      "outputs": [],
      "stateMutability": "nonpayable",
      "type": "function"
    },
    {
      "inputs": [
        {
          "internalType": "bytes4",
          "name": "interfaceId",
          "type": "bytes4"
        }
      ],
      "name": "supportsInterface",
      "outputs": [
        {
          "internalType": "bool",
          "name": "",
          "type": "bool"
        }
      ],
      "stateMutability": "view",
      "type": "function"
    },
    {
      "inputs": [],
      "name": "symbol",
      "outputs": [
        {
          "internalType": "string",
          "name": "",
          "type": "string"
        }
      ],
      "stateMutability": "view",
      "type": "function"
    },
    {
      "inputs": [
        {
          "internalType": "uint256",
          "name": "tokenId",
          "type": "uint256"
        }
      ],
      "name": "tokenURI",
      "outputs": [
        {
          "internalType": "string",
          "name": "",
          "type": "string"
        }
      ],
      "stateMutability": "view",
      "type": "function"
    },
    {
      "inputs": [
        {
          "internalType": "address",
          "name": "from",
          "type": "address"
        },
        {
          "internalType": "address",
          "name": "to",
          "type": "address"
        },
        {
          "internalType": "uint256",
          "name": "tokenId",
          "type": "uint256"
        }
      ],
      "name": "transferFrom",
      "outputs": [],
      "stateMutability": "nonpayable",
      "type": "function"
    },
    {
      "inputs": [
        {
          "internalType": "address",
          "name": "newOwner",
          "type": "address"
        }
      ],
      "name": "transferOwnership",
      "outputs": [],
      "stateMutability": "nonpayable",
      "type": "function"
    }
  ],
  "bytecode": "0x6101206040523480156200001257600080fd5b50604051620044d6380380620044d68339818101604052810190620000389190620005b1565b846040518060400160405280600c81526020017f54726164696e67204361726400000000000000000000000000000000000000008152506040518060400160405280600381526020017f54444300000000000000000000000000000000000000000000000000000000008152508160009080519060200190620000bd9291906200029c565b508060019080519060200190620000d69291906200029c565b5050508073ffffffffffffffffffffffffffffffffffffffff1660808173ffffffffffffffffffffffffffffffffffffffff1660601b81525050506200013162000125620001ce60201b60201c565b620001d660201b60201c565b8473ffffffffffffffffffffffffffffffffffffffff1660a08173ffffffffffffffffffffffffffffffffffffffff1660601b815250508360c081815250508267ffffffffffffffff1660e08167ffffffffffffffff1660c01b815250508163ffffffff166101008163ffffffff1660e01b815250506000600d81905550806009906004620001c29291906200032d565b505050505050620008d4565b600033905090565b6000600760009054906101000a900473ffffffffffffffffffffffffffffffffffffffff16905081600760006101000a81548173ffffffffffffffffffffffffffffffffffffffff021916908373ffffffffffffffffffffffffffffffffffffffff1602179055508173ffffffffffffffffffffffffffffffffffffffff168173ffffffffffffffffffffffffffffffffffffffff167f8be0079c531659141344cd1fd0a4f28419497f9722a3daafe3b4186f6b6457e060405160405180910390a35050565b828054620002aa9062000778565b90600052602060002090601f016020900481019282620002ce57600085556200031a565b82601f10620002e957805160ff19168380011785556200031a565b828001600101855582156200031a579182015b8281111562000319578251825591602001919060010190620002fc565b5b50905062000329919062000387565b5090565b826004810192821562000374579160200282015b8281111562000373578251829080519060200190620003629291906200029c565b509160200191906001019062000341565b5b509050620003839190620003a6565b5090565b5b80821115620003a257600081600090555060010162000388565b5090565b5b80821115620003ca5760008181620003c09190620003ce565b50600101620003a7565b5090565b508054620003dc9062000778565b6000825580601f10620003f0575062000411565b601f01602090049060005260206000209081019062000410919062000387565b5b50565b60006200042b620004258462000681565b62000658565b9050808285602086028201111562000448576200044762000847565b5b60005b858110156200049d57815167ffffffffffffffff81111562000472576200047162000842565b5b80860162000481898262000550565b855260208501945060208401935050506001810190506200044b565b5050509392505050565b6000620004be620004b884620006aa565b62000658565b905082815260208101848484011115620004dd57620004dc6200084c565b5b620004ea84828562000742565b509392505050565b60008151905062000503816200086c565b92915050565b600082601f83011262000521576200052062000842565b5b60046200053084828562000414565b91505092915050565b6000815190506200054a8162000886565b92915050565b600082601f83011262000568576200056762000842565b5b81516200057a848260208601620004a7565b91505092915050565b6000815190506200059481620008a0565b92915050565b600081519050620005ab81620008ba565b92915050565b600080600080600060a08688031215620005d057620005cf62000856565b5b6000620005e088828901620004f2565b9550506020620005f38882890162000539565b945050604062000606888289016200059a565b9350506060620006198882890162000583565b925050608086015167ffffffffffffffff8111156200063d576200063c62000851565b5b6200064b8882890162000509565b9150509295509295909350565b60006200066462000677565b9050620006728282620007ae565b919050565b6000604051905090565b600067ffffffffffffffff8211156200069f576200069e62000813565b5b602082029050919050565b600067ffffffffffffffff821115620006c857620006c762000813565b5b620006d3826200085b565b9050602081019050919050565b6000620006ed82620006fe565b9050919050565b6000819050919050565b600073ffffffffffffffffffffffffffffffffffffffff82169050919050565b600063ffffffff82169050919050565b600067ffffffffffffffff82169050919050565b60005b838110156200076257808201518184015260208101905062000745565b8381111562000772576000848401525b50505050565b600060028204905060018216806200079157607f821691505b60208210811415620007a857620007a7620007e4565b5b50919050565b620007b9826200085b565b810181811067ffffffffffffffff82111715620007db57620007da62000813565b5b80604052505050565b7f4e487b7100000000000000000000000000000000000000000000000000000000600052602260045260246000fd5b7f4e487b7100000000000000000000000000000000000000000000000000000000600052604160045260246000fd5b600080fd5b600080fd5b600080fd5b600080fd5b600080fd5b6000601f19601f8301169050919050565b6200087781620006e0565b81146200088357600080fd5b50565b6200089181620006f4565b81146200089d57600080fd5b50565b620008ab816200071e565b8114620008b757600080fd5b50565b620008c5816200072e565b8114620008d157600080fd5b50565b60805160601c60a05160601c60c05160e05160c01c6101005160e01c613b8e62000948600039600081816109fa01526112bd0152600081816109d70152610c260152600081816109b60152610f4501526000818161097a01526110e5015260008181610ae60152610b3a0152613b8e6000f3fe608060405234801561001057600080fd5b50600436106101da5760003560e01c806372cf6e3411610104578063a36f573b116100a2578063d757d02711610071578063d757d0271461055b578063da1b9e2914610579578063e985e9c514610597578063f2fde38b146105c7576101da565b8063a36f573b146104c1578063aebc4550146104f1578063b88d4fde1461050f578063c87b56dd1461052b576101da565b80638e879c8a116100de5780638e879c8a1461043957806395d89b4114610457578063976fe18214610475578063a22cb465146104a5576101da565b806372cf6e34146103cd578063806091d3146103eb5780638da5cb5b1461041b576101da565b806323b872dd1161017c5780636352211e1161014b5780636352211e1461034557806367f082b01461037557806370a0823114610393578063715018a6146103c3576101da565b806323b872dd146102d157806342842e0e146102ed578063470cdf97146103095780635dacf5f414610327576101da565b8063095ea7b3116101b8578063095ea7b31461025d5780630b21a83b146102795780630d0b9b29146102975780631fe543e3146102b5576101da565b806301ffc9a7146101df57806306fdde031461020f578063081812fc1461022d575b600080fd5b6101f960048036038101906101f491906127df565b6105e3565b6040516102069190612dcd565b60405180910390f35b6102176106c5565b6040516102249190612e71565b60405180910390f35b61024760048036038101906102429190612839565b610757565b6040516102549190612d22565b60405180910390f35b6102776004803603810190610272919061279f565b6107dc565b005b6102816108f4565b60405161028e91906130ee565b60405180910390f35b61029f6108fa565b6040516102ac91906130ee565b60405180910390f35b6102cf60048036038101906102ca9190612893565b610ae4565b005b6102eb60048036038101906102e69190612689565b610ba4565b005b61030760048036038101906103029190612689565b610c04565b005b610311610c24565b60405161031e9190613124565b60405180910390f35b61032f610c48565b60405161033c9190612db2565b60405180910390f35b61035f600480360381019061035a9190612839565b610c7a565b60405161036c9190612d22565b60405180910390f35b61037d610d2c565b60405161038a91906130d3565b60405180910390f35b6103ad60048036038101906103a8919061261c565b610d31565b6040516103ba91906130ee565b60405180910390f35b6103cb610de9565b005b6103d5610e71565b6040516103e29190613109565b60405180910390f35b61040560048036038101906104009190612839565b610e76565b6040516104129190612e71565b60405180910390f35b610423610f19565b6040516104309190612d22565b60405180910390f35b610441610f43565b60405161044e9190612de8565b60405180910390f35b61045f610f67565b60405161046c9190612e71565b60405180910390f35b61048f600480360381019061048a9190612839565b610ff9565b60405161049c91906130ee565b60405180910390f35b6104bf60048036038101906104ba919061275f565b61109a565b005b6104db60048036038101906104d69190612839565b6110b0565b6040516104e89190612d22565b60405180910390f35b6104f96110e3565b6040516105069190612e56565b60405180910390f35b610529600480360381019061052491906126dc565b611107565b005b61054560048036038101906105409190612839565b611169565b6040516105529190612e71565b60405180910390f35b6105636112bb565b6040516105709190613109565b60405180910390f35b6105816112df565b60405161058e91906130ee565b60405180910390f35b6105b160048036038101906105ac9190612649565b6112e4565b6040516105be9190612dcd565b60405180910390f35b6105e160048036038101906105dc919061261c565b611378565b005b60007f80ac58cd000000000000000000000000000000000000000000000000000000007bffffffffffffffffffffffffffffffffffffffffffffffffffffffff1916827bffffffffffffffffffffffffffffffffffffffffffffffffffffffff191614806106ae57507f5b5e139f000000000000000000000000000000000000000000000000000000007bffffffffffffffffffffffffffffffffffffffffffffffffffffffff1916827bffffffffffffffffffffffffffffffffffffffffffffffffffffffff1916145b806106be57506106bd82611470565b5b9050919050565b6060600080546106d490613414565b80601f016020809104026020016040519081016040528092919081815260200182805461070090613414565b801561074d5780601f106107225761010080835404028352916020019161074d565b820191906000526020600020905b81548152906001019060200180831161073057829003601f168201915b5050505050905090565b6000610762826114da565b6107a1576040517f08c379a000000000000000000000000000000000000000000000000000000000815260040161079890613033565b60405180910390fd5b6004600083815260200190815260200160002060009054906101000a900473ffffffffffffffffffffffffffffffffffffffff169050919050565b60006107e782610c7a565b90508073ffffffffffffffffffffffffffffffffffffffff168373ffffffffffffffffffffffffffffffffffffffff161415610858576040517f08c379a000000000000000000000000000000000000000000000000000000000815260040161084f90613093565b60405180910390fd5b8073ffffffffffffffffffffffffffffffffffffffff16610877611546565b73ffffffffffffffffffffffffffffffffffffffff1614806108a657506108a5816108a0611546565b6112e4565b5b6108e5576040517f08c379a00000000000000000000000000000000000000000000000000000000081526004016108dc90612f73565b60405180910390fd5b6108ef838361154e565b505050565b600d5481565b6000610904611546565b73ffffffffffffffffffffffffffffffffffffffff16610922610f19565b73ffffffffffffffffffffffffffffffffffffffff1614610978576040517f08c379a000000000000000000000000000000000000000000000000000000000815260040161096f90613053565b60405180910390fd5b7f000000000000000000000000000000000000000000000000000000000000000073ffffffffffffffffffffffffffffffffffffffff16635d3b1d307f00000000000000000000000000000000000000000000000000000000000000007f000000000000000000000000000000000000000000000000000000000000000060037f000000000000000000000000000000000000000000000000000000000000000060016040518663ffffffff1660e01b8152600401610a3b959493929190612e03565b602060405180830381600087803b158015610a5557600080fd5b505af1158015610a69573d6000803e3d6000fd5b505050506040513d601f19601f82011682018060405250810190610a8d9190612866565b9050336008600083815260200190815260200160002060006101000a81548173ffffffffffffffffffffffffffffffffffffffff021916908373ffffffffffffffffffffffffffffffffffffffff16021790555090565b7f000000000000000000000000000000000000000000000000000000000000000073ffffffffffffffffffffffffffffffffffffffff163373ffffffffffffffffffffffffffffffffffffffff1614610b9657337f00000000000000000000000000000000000000000000000000000000000000006040517f1cf993f4000000000000000000000000000000000000000000000000000000008152600401610b8d929190612d3d565b60405180910390fd5b610ba08282611607565b5050565b610bb5610baf611546565b8261174d565b610bf4576040517f08c379a0000000000000000000000000000000000000000000000000000000008152600401610beb906130b3565b60405180910390fd5b610bff83838361182b565b505050565b610c1f83838360405180602001604052806000815250611107565b505050565b7f000000000000000000000000000000000000000000000000000000000000000081565b610c506123cb565b6040518060800160405280600a815260200160148152602001601e81526020016064815250905090565b6000806002600084815260200190815260200160002060009054906101000a900473ffffffffffffffffffffffffffffffffffffffff169050600073ffffffffffffffffffffffffffffffffffffffff168173ffffffffffffffffffffffffffffffffffffffff161415610d23576040517f08c379a0000000000000000000000000000000000000000000000000000000008152600401610d1a90612fb3565b60405180910390fd5b80915050919050565b600381565b60008073ffffffffffffffffffffffffffffffffffffffff168273ffffffffffffffffffffffffffffffffffffffff161415610da2576040517f08c379a0000000000000000000000000000000000000000000000000000000008152600401610d9990612f93565b60405180910390fd5b600360008373ffffffffffffffffffffffffffffffffffffffff1673ffffffffffffffffffffffffffffffffffffffff168152602001908152602001600020549050919050565b610df1611546565b73ffffffffffffffffffffffffffffffffffffffff16610e0f610f19565b73ffffffffffffffffffffffffffffffffffffffff1614610e65576040517f08c379a0000000000000000000000000000000000000000000000000000000008152600401610e5c90613053565b60405180910390fd5b610e6f6000611a92565b565b600181565b60098160048110610e8657600080fd5b016000915090508054610e9890613414565b80601f0160208091040260200160405190810160405280929190818152602001828054610ec490613414565b8015610f115780601f10610ee657610100808354040283529160200191610f11565b820191906000526020600020905b815481529060010190602001808311610ef457829003601f168201915b505050505081565b6000600760009054906101000a900473ffffffffffffffffffffffffffffffffffffffff16905090565b7f000000000000000000000000000000000000000000000000000000000000000081565b606060018054610f7690613414565b80601f0160208091040260200160405190810160405280929190818152602001828054610fa290613414565b8015610fef5780601f10610fc457610100808354040283529160200191610fef565b820191906000526020600020905b815481529060010190602001808311610fd257829003601f168201915b5050505050905090565b60008060009050600061100a610c48565b905060005b60048110156110915782851015801561104957508181600481106110365761103561357e565b5b6020020151836110469190613231565b85105b1561105957809350505050611095565b81816004811061106c5761106b61357e565b5b60200201518361107c9190613231565b9250808061108990613477565b91505061100f565b5050505b919050565b6110ac6110a5611546565b8383611b58565b5050565b60086020528060005260406000206000915054906101000a900473ffffffffffffffffffffffffffffffffffffffff1681565b7f000000000000000000000000000000000000000000000000000000000000000081565b611118611112611546565b8361174d565b611157576040517f08c379a000000000000000000000000000000000000000000000000000000000815260040161114e906130b3565b60405180910390fd5b61116384848484611cc5565b50505050565b6060611174826114da565b6111b3576040517f08c379a00000000000000000000000000000000000000000000000000000000081526004016111aa90613013565b60405180910390fd5b60006006600084815260200190815260200160002080546111d390613414565b80601f01602080910402602001604051908101604052809291908181526020018280546111ff90613414565b801561124c5780601f106112215761010080835404028352916020019161124c565b820191906000526020600020905b81548152906001019060200180831161122f57829003601f168201915b50505050509050600061125d611d21565b90506000815114156112735781925050506112b6565b6000825111156112a8578082604051602001611290929190612cfe565b604051602081830303815290604052925050506112b6565b6112b184611d38565b925050505b919050565b7f000000000000000000000000000000000000000000000000000000000000000081565b606481565b6000600560008473ffffffffffffffffffffffffffffffffffffffff1673ffffffffffffffffffffffffffffffffffffffff16815260200190815260200160002060008373ffffffffffffffffffffffffffffffffffffffff1673ffffffffffffffffffffffffffffffffffffffff16815260200190815260200160002060009054906101000a900460ff16905092915050565b611380611546565b73ffffffffffffffffffffffffffffffffffffffff1661139e610f19565b73ffffffffffffffffffffffffffffffffffffffff16146113f4576040517f08c379a00000000000000000000000000000000000000000000000000000000081526004016113eb90613053565b60405180910390fd5b600073ffffffffffffffffffffffffffffffffffffffff168173ffffffffffffffffffffffffffffffffffffffff161415611464576040517f08c379a000000000000000000000000000000000000000000000000000000000815260040161145b90612eb3565b60405180910390fd5b61146d81611a92565b50565b60007f01ffc9a7000000000000000000000000000000000000000000000000000000007bffffffffffffffffffffffffffffffffffffffffffffffffffffffff1916827bffffffffffffffffffffffffffffffffffffffffffffffffffffffff1916149050919050565b60008073ffffffffffffffffffffffffffffffffffffffff166002600084815260200190815260200160002060009054906101000a900473ffffffffffffffffffffffffffffffffffffffff1673ffffffffffffffffffffffffffffffffffffffff1614159050919050565b600033905090565b816004600083815260200190815260200160002060006101000a81548173ffffffffffffffffffffffffffffffffffffffff021916908373ffffffffffffffffffffffffffffffffffffffff160217905550808273ffffffffffffffffffffffffffffffffffffffff166115c183610c7a565b73ffffffffffffffffffffffffffffffffffffffff167f8c5be1e5ebec7d5bd14f71427d1e84f3dd0314c0f7b2291e5b200ac8c7c3b92560405160405180910390a45050565b60006008600084815260200190815260200160002060009054906101000a900473ffffffffffffffffffffffffffffffffffffffff1690506000600d5490506001600d546116559190613231565b600d8190555060006064846000815181106116735761167261357e565b5b602002602001015161168591906134c0565b9050600061169282610ff9565b905061169e8484611ddf565b61174583600983600481106116b6576116b561357e565b5b0180546116c290613414565b80601f01602080910402602001604051908101604052809291908181526020018280546116ee90613414565b801561173b5780601f106117105761010080835404028352916020019161173b565b820191906000526020600020905b81548152906001019060200180831161171e57829003601f168201915b5050505050611dfd565b505050505050565b6000611758826114da565b611797576040517f08c379a000000000000000000000000000000000000000000000000000000000815260040161178e90612f53565b60405180910390fd5b60006117a283610c7a565b90508073ffffffffffffffffffffffffffffffffffffffff168473ffffffffffffffffffffffffffffffffffffffff1614806117e457506117e381856112e4565b5b8061182257508373ffffffffffffffffffffffffffffffffffffffff1661180a84610757565b73ffffffffffffffffffffffffffffffffffffffff16145b91505092915050565b8273ffffffffffffffffffffffffffffffffffffffff1661184b82610c7a565b73ffffffffffffffffffffffffffffffffffffffff16146118a1576040517f08c379a000000000000000000000000000000000000000000000000000000000815260040161189890612ed3565b60405180910390fd5b600073ffffffffffffffffffffffffffffffffffffffff168273ffffffffffffffffffffffffffffffffffffffff161415611911576040517f08c379a000000000000000000000000000000000000000000000000000000000815260040161190890612f13565b60405180910390fd5b61191c838383611e71565b61192760008261154e565b6001600360008573ffffffffffffffffffffffffffffffffffffffff1673ffffffffffffffffffffffffffffffffffffffff168152602001908152602001600020600082825461197791906132b8565b925050819055506001600360008473ffffffffffffffffffffffffffffffffffffffff1673ffffffffffffffffffffffffffffffffffffffff16815260200190815260200160002060008282546119ce9190613231565b92505081905550816002600083815260200190815260200160002060006101000a81548173ffffffffffffffffffffffffffffffffffffffff021916908373ffffffffffffffffffffffffffffffffffffffff160217905550808273ffffffffffffffffffffffffffffffffffffffff168473ffffffffffffffffffffffffffffffffffffffff167fddf252ad1be2c89b69c2b068fc378daa952ba7f163c4a11628f55a4df523b3ef60405160405180910390a4611a8d838383611e76565b505050565b6000600760009054906101000a900473ffffffffffffffffffffffffffffffffffffffff16905081600760006101000a81548173ffffffffffffffffffffffffffffffffffffffff021916908373ffffffffffffffffffffffffffffffffffffffff1602179055508173ffffffffffffffffffffffffffffffffffffffff168173ffffffffffffffffffffffffffffffffffffffff167f8be0079c531659141344cd1fd0a4f28419497f9722a3daafe3b4186f6b6457e060405160405180910390a35050565b8173ffffffffffffffffffffffffffffffffffffffff168373ffffffffffffffffffffffffffffffffffffffff161415611bc7576040517f08c379a0000000000000000000000000000000000000000000000000000000008152600401611bbe90612f33565b60405180910390fd5b80600560008573ffffffffffffffffffffffffffffffffffffffff1673ffffffffffffffffffffffffffffffffffffffff16815260200190815260200160002060008473ffffffffffffffffffffffffffffffffffffffff1673ffffffffffffffffffffffffffffffffffffffff16815260200190815260200160002060006101000a81548160ff0219169083151502179055508173ffffffffffffffffffffffffffffffffffffffff168373ffffffffffffffffffffffffffffffffffffffff167f17307eab39ab6107e8899845ad3d59bd9653f200f220920489ca2b5937696c3183604051611cb89190612dcd565b60405180910390a3505050565b611cd084848461182b565b611cdc84848484611e7b565b611d1b576040517f08c379a0000000000000000000000000000000000000000000000000000000008152600401611d1290612e93565b60405180910390fd5b50505050565b606060405180602001604052806000815250905090565b6060611d43826114da565b611d82576040517f08c379a0000000000000000000000000000000000000000000000000000000008152600401611d7990613073565b60405180910390fd5b6000611d8c611d21565b90506000815111611dac5760405180602001604052806000815250611dd7565b80611db684612012565b604051602001611dc7929190612cfe565b6040516020818303038152906040525b915050919050565b611df9828260405180602001604052806000815250612173565b5050565b611e06826114da565b611e45576040517f08c379a0000000000000000000000000000000000000000000000000000000008152600401611e3c90612fd3565b60405180910390fd5b80600660008481526020019081526020016000209080519060200190611e6c9291906123ed565b505050565b505050565b505050565b6000611e9c8473ffffffffffffffffffffffffffffffffffffffff166121ce565b15612005578373ffffffffffffffffffffffffffffffffffffffff1663150b7a02611ec5611546565b8786866040518563ffffffff1660e01b8152600401611ee79493929190612d66565b602060405180830381600087803b158015611f0157600080fd5b505af1925050508015611f3257506040513d601f19601f82011682018060405250810190611f2f919061280c565b60015b611fb5573d8060008114611f62576040519150601f19603f3d011682016040523d82523d6000602084013e611f67565b606091505b50600081511415611fad576040517f08c379a0000000000000000000000000000000000000000000000000000000008152600401611fa490612e93565b60405180910390fd5b805181602001fd5b63150b7a0260e01b7bffffffffffffffffffffffffffffffffffffffffffffffffffffffff1916817bffffffffffffffffffffffffffffffffffffffffffffffffffffffff19161491505061200a565b600190505b949350505050565b6060600082141561205a576040518060400160405280600181526020017f3000000000000000000000000000000000000000000000000000000000000000815250905061216e565b600082905060005b6000821461208c57808061207590613477565b915050600a826120859190613287565b9150612062565b60008167ffffffffffffffff8111156120a8576120a76135ad565b5b6040519080825280601f01601f1916602001820160405280156120da5781602001600182028036833780820191505090505b5090505b60008514612167576001826120f391906132b8565b9150600a8561210291906134c0565b603061210e9190613231565b60f81b8183815181106121245761212361357e565b5b60200101907effffffffffffffffffffffffffffffffffffffffffffffffffffffffffffff1916908160001a905350600a856121609190613287565b94506120de565b8093505050505b919050565b61217d83836121f1565b61218a6000848484611e7b565b6121c9576040517f08c379a00000000000000000000000000000000000000000000000000000000081526004016121c090612e93565b60405180910390fd5b505050565b6000808273ffffffffffffffffffffffffffffffffffffffff163b119050919050565b600073ffffffffffffffffffffffffffffffffffffffff168273ffffffffffffffffffffffffffffffffffffffff161415612261576040517f08c379a000000000000000000000000000000000000000000000000000000000815260040161225890612ff3565b60405180910390fd5b61226a816114da565b156122aa576040517f08c379a00000000000000000000000000000000000000000000000000000000081526004016122a190612ef3565b60405180910390fd5b6122b660008383611e71565b6001600360008473ffffffffffffffffffffffffffffffffffffffff1673ffffffffffffffffffffffffffffffffffffffff16815260200190815260200160002060008282546123069190613231565b92505081905550816002600083815260200190815260200160002060006101000a81548173ffffffffffffffffffffffffffffffffffffffff021916908373ffffffffffffffffffffffffffffffffffffffff160217905550808273ffffffffffffffffffffffffffffffffffffffff16600073ffffffffffffffffffffffffffffffffffffffff167fddf252ad1be2c89b69c2b068fc378daa952ba7f163c4a11628f55a4df523b3ef60405160405180910390a46123c760008383611e76565b5050565b6040518060800160405280600490602082028036833780820191505090505090565b8280546123f990613414565b90600052602060002090601f01602090048101928261241b5760008555612462565b82601f1061243457805160ff1916838001178555612462565b82800160010185558215612462579182015b82811115612461578251825591602001919060010190612446565b5b50905061246f9190612473565b5090565b5b8082111561248c576000816000905550600101612474565b5090565b60006124a361249e84613164565b61313f565b905080838252602082019050828560208602820111156124c6576124c56135e1565b5b60005b858110156124f657816124dc88826125f2565b8452602084019350602083019250506001810190506124c9565b5050509392505050565b600061251361250e84613190565b61313f565b90508281526020810184848401111561252f5761252e6135e6565b5b61253a8482856133d2565b509392505050565b60008135905061255181613afc565b92915050565b600082601f83011261256c5761256b6135dc565b5b813561257c848260208601612490565b91505092915050565b60008135905061259481613b13565b92915050565b6000813590506125a981613b2a565b92915050565b6000815190506125be81613b2a565b92915050565b600082601f8301126125d9576125d86135dc565b5b81356125e9848260208601612500565b91505092915050565b60008135905061260181613b41565b92915050565b60008151905061261681613b41565b92915050565b600060208284031215612632576126316135f0565b5b600061264084828501612542565b91505092915050565b600080604083850312156126605761265f6135f0565b5b600061266e85828601612542565b925050602061267f85828601612542565b9150509250929050565b6000806000606084860312156126a2576126a16135f0565b5b60006126b086828701612542565b93505060206126c186828701612542565b92505060406126d2868287016125f2565b9150509250925092565b600080600080608085870312156126f6576126f56135f0565b5b600061270487828801612542565b945050602061271587828801612542565b9350506040612726878288016125f2565b925050606085013567ffffffffffffffff811115612747576127466135eb565b5b612753878288016125c4565b91505092959194509250565b60008060408385031215612776576127756135f0565b5b600061278485828601612542565b925050602061279585828601612585565b9150509250929050565b600080604083850312156127b6576127b56135f0565b5b60006127c485828601612542565b92505060206127d5858286016125f2565b9150509250929050565b6000602082840312156127f5576127f46135f0565b5b60006128038482850161259a565b91505092915050565b600060208284031215612822576128216135f0565b5b6000612830848285016125af565b91505092915050565b60006020828403121561284f5761284e6135f0565b5b600061285d848285016125f2565b91505092915050565b60006020828403121561287c5761287b6135f0565b5b600061288a84828501612607565b91505092915050565b600080604083850312156128aa576128a96135f0565b5b60006128b8858286016125f2565b925050602083013567ffffffffffffffff8111156128d9576128d86135eb565b5b6128e585828601612557565b9150509250929050565b60006128fb8383612cc2565b60208301905092915050565b612910816132ec565b82525050565b61291f816131cb565b61292981846131f9565b9250612934826131c1565b8060005b8381101561296557815161294c87826128ef565b9650612957836131ec565b925050600181019050612938565b505050505050565b612976816132fe565b82525050565b6129858161330a565b82525050565b6000612996826131d6565b6129a08185613204565b93506129b08185602086016133e1565b6129b9816135f5565b840191505092915050565b6129cd8161339c565b82525050565b60006129de826131e1565b6129e88185613215565b93506129f88185602086016133e1565b612a01816135f5565b840191505092915050565b6000612a17826131e1565b612a218185613226565b9350612a318185602086016133e1565b80840191505092915050565b6000612a4a603283613215565b9150612a5582613606565b604082019050919050565b6000612a6d602683613215565b9150612a7882613655565b604082019050919050565b6000612a90602583613215565b9150612a9b826136a4565b604082019050919050565b6000612ab3601c83613215565b9150612abe826136f3565b602082019050919050565b6000612ad6602483613215565b9150612ae18261371c565b604082019050919050565b6000612af9601983613215565b9150612b048261376b565b602082019050919050565b6000612b1c602c83613215565b9150612b2782613794565b604082019050919050565b6000612b3f603883613215565b9150612b4a826137e3565b604082019050919050565b6000612b62602a83613215565b9150612b6d82613832565b604082019050919050565b6000612b85602983613215565b9150612b9082613881565b604082019050919050565b6000612ba8602e83613215565b9150612bb3826138d0565b604082019050919050565b6000612bcb602083613215565b9150612bd68261391f565b602082019050919050565b6000612bee603183613215565b9150612bf982613948565b604082019050919050565b6000612c11602c83613215565b9150612c1c82613997565b604082019050919050565b6000612c34602083613215565b9150612c3f826139e6565b602082019050919050565b6000612c57602f83613215565b9150612c6282613a0f565b604082019050919050565b6000612c7a602183613215565b9150612c8582613a5e565b604082019050919050565b6000612c9d603183613215565b9150612ca882613aad565b604082019050919050565b612cbc81613340565b82525050565b612ccb8161336e565b82525050565b612cda8161336e565b82525050565b612ce981613378565b82525050565b612cf881613388565b82525050565b6000612d0a8285612a0c565b9150612d168284612a0c565b91508190509392505050565b6000602082019050612d376000830184612907565b92915050565b6000604082019050612d526000830185612907565b612d5f6020830184612907565b9392505050565b6000608082019050612d7b6000830187612907565b612d886020830186612907565b612d956040830185612cd1565b8181036060830152612da7818461298b565b905095945050505050565b6000608082019050612dc76000830184612916565b92915050565b6000602082019050612de2600083018461296d565b92915050565b6000602082019050612dfd600083018461297c565b92915050565b600060a082019050612e18600083018861297c565b612e256020830187612cef565b612e326040830186612cb3565b612e3f6060830185612ce0565b612e4c6080830184612ce0565b9695505050505050565b6000602082019050612e6b60008301846129c4565b92915050565b60006020820190508181036000830152612e8b81846129d3565b905092915050565b60006020820190508181036000830152612eac81612a3d565b9050919050565b60006020820190508181036000830152612ecc81612a60565b9050919050565b60006020820190508181036000830152612eec81612a83565b9050919050565b60006020820190508181036000830152612f0c81612aa6565b9050919050565b60006020820190508181036000830152612f2c81612ac9565b9050919050565b60006020820190508181036000830152612f4c81612aec565b9050919050565b60006020820190508181036000830152612f6c81612b0f565b9050919050565b60006020820190508181036000830152612f8c81612b32565b9050919050565b60006020820190508181036000830152612fac81612b55565b9050919050565b60006020820190508181036000830152612fcc81612b78565b9050919050565b60006020820190508181036000830152612fec81612b9b565b9050919050565b6000602082019050818103600083015261300c81612bbe565b9050919050565b6000602082019050818103600083015261302c81612be1565b9050919050565b6000602082019050818103600083015261304c81612c04565b9050919050565b6000602082019050818103600083015261306c81612c27565b9050919050565b6000602082019050818103600083015261308c81612c4a565b9050919050565b600060208201905081810360008301526130ac81612c6d565b9050919050565b600060208201905081810360008301526130cc81612c90565b9050919050565b60006020820190506130e86000830184612cb3565b92915050565b60006020820190506131036000830184612cd1565b92915050565b600060208201905061311e6000830184612ce0565b92915050565b60006020820190506131396000830184612cef565b92915050565b600061314961315a565b90506131558282613446565b919050565b6000604051905090565b600067ffffffffffffffff82111561317f5761317e6135ad565b5b602082029050602081019050919050565b600067ffffffffffffffff8211156131ab576131aa6135ad565b5b6131b4826135f5565b9050602081019050919050565b6000819050919050565b600060049050919050565b600081519050919050565b600081519050919050565b6000602082019050919050565b600081905092915050565b600082825260208201905092915050565b600082825260208201905092915050565b600081905092915050565b600061323c8261336e565b91506132478361336e565b9250827fffffffffffffffffffffffffffffffffffffffffffffffffffffffffffffffff0382111561327c5761327b6134f1565b5b828201905092915050565b60006132928261336e565b915061329d8361336e565b9250826132ad576132ac613520565b5b828204905092915050565b60006132c38261336e565b91506132ce8361336e565b9250828210156132e1576132e06134f1565b5b828203905092915050565b60006132f78261334e565b9050919050565b60008115159050919050565b6000819050919050565b60007fffffffff0000000000000000000000000000000000000000000000000000000082169050919050565b600061ffff82169050919050565b600073ffffffffffffffffffffffffffffffffffffffff82169050919050565b6000819050919050565b600063ffffffff82169050919050565b600067ffffffffffffffff82169050919050565b60006133a7826133ae565b9050919050565b60006133b9826133c0565b9050919050565b60006133cb8261334e565b9050919050565b82818337600083830152505050565b60005b838110156133ff5780820151818401526020810190506133e4565b8381111561340e576000848401525b50505050565b6000600282049050600182168061342c57607f821691505b602082108114156134405761343f61354f565b5b50919050565b61344f826135f5565b810181811067ffffffffffffffff8211171561346e5761346d6135ad565b5b80604052505050565b60006134828261336e565b91507fffffffffffffffffffffffffffffffffffffffffffffffffffffffffffffffff8214156134b5576134b46134f1565b5b600182019050919050565b60006134cb8261336e565b91506134d68361336e565b9250826134e6576134e5613520565b5b828206905092915050565b7f4e487b7100000000000000000000000000000000000000000000000000000000600052601160045260246000fd5b7f4e487b7100000000000000000000000000000000000000000000000000000000600052601260045260246000fd5b7f4e487b7100000000000000000000000000000000000000000000000000000000600052602260045260246000fd5b7f4e487b7100000000000000000000000000000000000000000000000000000000600052603260045260246000fd5b7f4e487b7100000000000000000000000000000000000000000000000000000000600052604160045260246000fd5b600080fd5b600080fd5b600080fd5b600080fd5b600080fd5b6000601f19601f8301169050919050565b7f4552433732313a207472616e7366657220746f206e6f6e20455243373231526560008201527f63656976657220696d706c656d656e7465720000000000000000000000000000602082015250565b7f4f776e61626c653a206e6577206f776e657220697320746865207a65726f206160008201527f6464726573730000000000000000000000000000000000000000000000000000602082015250565b7f4552433732313a207472616e736665722066726f6d20696e636f72726563742060008201527f6f776e6572000000000000000000000000000000000000000000000000000000602082015250565b7f4552433732313a20746f6b656e20616c7265616479206d696e74656400000000600082015250565b7f4552433732313a207472616e7366657220746f20746865207a65726f2061646460008201527f7265737300000000000000000000000000000000000000000000000000000000602082015250565b7f4552433732313a20617070726f766520746f2063616c6c657200000000000000600082015250565b7f4552433732313a206f70657261746f7220717565727920666f72206e6f6e657860008201527f697374656e7420746f6b656e0000000000000000000000000000000000000000602082015250565b7f4552433732313a20617070726f76652063616c6c6572206973206e6f74206f7760008201527f6e6572206e6f7220617070726f76656420666f7220616c6c0000000000000000602082015250565b7f4552433732313a2062616c616e636520717565727920666f7220746865207a6560008201527f726f206164647265737300000000000000000000000000000000000000000000602082015250565b7f4552433732313a206f776e657220717565727920666f72206e6f6e657869737460008201527f656e7420746f6b656e0000000000000000000000000000000000000000000000602082015250565b7f45524337323155524953746f726167653a2055524920736574206f66206e6f6e60008201527f6578697374656e7420746f6b656e000000000000000000000000000000000000602082015250565b7f4552433732313a206d696e7420746f20746865207a65726f2061646472657373600082015250565b7f45524337323155524953746f726167653a2055524920717565727920666f722060008201527f6e6f6e6578697374656e7420746f6b656e000000000000000000000000000000602082015250565b7f4552433732313a20617070726f76656420717565727920666f72206e6f6e657860008201527f697374656e7420746f6b656e0000000000000000000000000000000000000000602082015250565b7f4f776e61626c653a2063616c6c6572206973206e6f7420746865206f776e6572600082015250565b7f4552433732314d657461646174613a2055524920717565727920666f72206e6f60008201527f6e6578697374656e7420746f6b656e0000000000000000000000000000000000602082015250565b7f4552433732313a20617070726f76616c20746f2063757272656e74206f776e6560008201527f7200000000000000000000000000000000000000000000000000000000000000602082015250565b7f4552433732313a207472616e736665722063616c6c6572206973206e6f74206f60008201527f776e6572206e6f7220617070726f766564000000000000000000000000000000602082015250565b613b05816132ec565b8114613b1057600080fd5b50565b613b1c816132fe565b8114613b2757600080fd5b50565b613b3381613314565b8114613b3e57600080fd5b50565b613b4a8161336e565b8114613b5557600080fd5b5056fea264697066735822122023014ecb43b38de01d44baaf447ab1e9a9d7280e7a2a39d94c1218e179fe4d4264736f6c63430008070033",
  "linkReferences": {},
  "deployedLinkReferences": {}
}